:10057B0057656C636F6D6520746F20757365210A09
:10058B00004D61646520627920426565746C65205D
:10059B00456C656374726F6E696320546563686E36
:1005AB006F6C6F6779210A0057656C636F6D6520FF
:1005BB00746F2075736521004552524F520A0045E6
:0D05CB0052524F52200020670A00206700A6
:1006AE00041100000000040900000000040D000009
:0706BE000000010800C1006B
:100280001206CB7BFF7A05797B1206467BFF7A0547
:10029000798C1206461206E37F801206FB7BFF7AFA
:1002A0000579B312061C7FE87E0312066E12073929
:1002B000C2AF120488D2AF12072530001B7BFF7A31
:1002C0000579C31206467FC01206FB7BFF7A0579CB
:1002D000CA12061CC29780D8D297E47BE87A03F949
:1002E000F8AF10AE0FAD0EAC0D1205D8EF2430FFF5
:1002F000120745E47BE87A03F9F8AF10AE0FAD0EB4
:10030000AC0D1205D8AC00AD01AE02AF03E47B64C6
:10031000FAF9F81205D8EF2430FF120745E47B64A0
:10032000FAF9F8AF10AE0FAD0EAC0D1205D8AC0057
:10033000AD01AE02AF03E47B0AFAF9F81205D8EF7B
:100340002430FF120745E47B0AFAF9F8AF10AE0F2C
:10035000AD0EAC0D1205D8EB2430FF1207457BFF24
:100360007A0579D11206467FC01206FBE47BE87A53
:1003700003F9F8AF10AE0FAD0EAC0D1205D8EF2497
:1003800030FF120710E47BE87A03F9F8AF10AE0FE4
:10039000AD0EAC0D1205D8AC00AD01AE02AF03E45A
:1003A0007B64FAF9F81205D8EF2430FF120710E445
:1003B0007B64FAF9F8AF10AE0FAD0EAC0D1205D894
:1003C000AC00AD01AE02AF03E47B0AFAF9F8120506
:1003D000D8EF2430FF120710E47B0AFAF9F8AF10C7
:1003E000AE0FAD0EAC0D1205D8EB2430FF12071086
:0C03F0007BFF7A0579D512061C0202B0D2
:1007250020B2107F057E0012066E20B20630B2FDA3
:04073500120739224C
:100488001205068F108E0F8D0E8C0DC3E510950C7E
:10049800F510E50F950BF50FE50E950AF50EE50D30
:1004A8009509F50DE4FFFEFDFCAB10AA0FA90EA8F7
:1004B8000DD3120189403DAF10AE0FAD0EAC0DEC5F
:1004C8001200A37B007AC079BD784312000612009F
:1004D800E1E48F108E0FF50EF50D7F887E13FDFC7D
:1004E800AB10AA0FA90EA80DD31201894003D200A0
:0E04F80022C20022E4F510F50FF50EF50D22DC
:0C0739001205068F0C8E0B8D0A8C092215
:10066E00E4FDFCC3ED9FEC9E5015E4FBFA0BBB00C2
:0F067E00010AEB647B4A70F50DBD00010C80E4AE
:01068D00224A
:03074F0000002285
:10050600D2A112074FC2A0E4F518F517F516F51596
:10051600D2AF20A1FDC2AFE4FBEBC3941874809464
:10052600805030D2A0AF18AE17AD16AC15780112B8
:10053600019F8F188E178D168C15C2A030A111EF52
:100546002401F518E43EF517E43DF516E43CF515EF
:100556000B80C6D2A0E518F518E517F517E5166461
:1005660080F516E515F51512074FC2A0AF18AE17A0
:04057600AD16AC15FD
:01057A00225E
:0506C500011900C10154
:1006CB00759850C29CE4F587758921758DFD758BE6
:0806DB00FDD28ED2AFC2AC22A9
:100646008B158A168917AB15AA16A91712016260AF
:10065600160517E5177002051614F9120162F599C9
:080666003099FDC29980DF22EA
:0A074500C2998F993099FDC29922E4
:10068E00E4FDFCC3ED9FEC9E5015E4FBFA0BBB00A2
:0F069E00010AEB647B4A70F50DBD00010C80E48E
:0106AD00222A
:1006FB00A907C2A57F017E0012068ED2A7898012A0
:05070B00068EC2A722CA
:10071000A907D2A57F017E0012068E8980D2A7127A
:05072000068EC2A722B5
:10061C008B158A168917AB15AA16A917120162FF3A
:10062C00D394007480948040101207107401251725
:0A063C00F517E43516F51680DD22EF
:1006E300C2A7C2A67F381206FB7F0C1206FB7F0649
:0806F3001206FB7F010206FB69
:10000300020157EC5D046005E85904700302014DD9
:10001300120118580460F6EC4860F2EC7004FDFE1F
:10002300FF22C860DB2481C85009C39860025006D0
:100033000201549850CAF582E9294B4A7005AB82F4
:1000430002014375F0007C1A7880C3EF9BEE9AEDB2
:1000530099400DC3EF9BFFEE9AFEED99FDE842F048
:10006300DC23ACF0D0E0FFD0E0FED0E0FDAB82209B
:10007300E7101BEB60BAEC2CFCEF33FFEE33FEED25
:1000830033FD02012FE803F830E705C0F075F000F7
:10009300EF2FFFEE33FEED33FD40B830E7C280AA09
:1000A30075F020800E75F010800575F0087D007ED8
:1000B300007F003392D530D50312017BEC3340101F
:1000C300EF33FFEE33FEED33FDEC33FCD5F0ED22E1
:0E00D300E5F0247EA2D513CC92E7CDCEFF221D
:1000E100EDD2E7CD33EC3392D524814006E4FFFE17
:1000F100FDFC22FCE4CFCECDCC24E0501174FF8076
:10010100EDC3CC13CCCD13CDCE13CECF13CF047012
:07011100F030D5DE02017B96
:10011800E9D2E7C933E833F892D5EDD2E7CD33EC2D
:0701280033FC5002B2D522A6
:10012F00EC30E7100FBF000C0EBE00080DBD000431
:10013F000BEB6014A2D5EB13FCED92E7FD2274FFDD
:10014F00FCFDFEFF22E480F8A2D574FF13FC7D8036
:03015F00E480EF4A
:030000000203FCFC
:0C03FC00787FE4F6D8FD758120020443F0
:10016200BB010689828A83E0225002E722BBFE029B
:09017200E32289828A83E49322CE
:1005D800C2D5E830E70FB2D5E4C39BFBE49AFAE44E
:1005E80099F9E498F8EC30E717B2D512060E120123
:1005F800EEE4C39BFBE49AFAE499F9E498F88003E3
:100608001201EE30D50DE4C39FFFE49EFEE49DFD8C
:04061800E49CFC2240
:0E017B00C3E49FFFE49EFEE49DFDE49CFC2295
:10018900EB9FF5F0EA9E42F0E99D42F0EC6480C8ED
:0601990064809845F0228D
:10019F00E8600FEFC333FFEE33FEED33FDEC33FCBE
:0301AF00D8F12262
:10040800020280E493A3F8E493A34003F68001F288
:1004180008DFF48029E493A3F85407240CC8C333F5
:10042800C4540F4420C8834004F456800146F6DFC4
:10043800E4800B01020408102040809006AEE47EA0
:10044800019360BCA3FF543F30E509541FFEE493B9
:10045800A360010ECF54C025E060A840B8E493A380
:10046800FAE493A3F8E493A3C8C582C8CAC583CAAB
:10047800F0A3C8C582C8CAC583CADFE9DEE780BE63
:0106CA00002F
:1001B20075F008758200EF2FFFEE33FECD33CDCC04
:1001C20033CCC58233C5829BED9AEC99E582984087
:1001D2000CF582EE9BFEED9AFDEC99FC0FD5F0D664
:1001E200E4CEFBE4CDFAE4CCF9A88222B800C1B98E
:1001F2000059BA002DEC8BF084CFCECDFCE5F0CBCC
:10020200F97818EF2FFFEE33FEED33FDEC33FCEB04
:1002120033FB10D703994004EB99FB0FD8E5E4F9BF
:10022200FA227818EF2FFFEE33FEED33FDEC33FCAC
:10023200C933C910D7059BE99A4007EC9BFCE99AA0
:10024200F90FD8E0E4C9FAE4CCFB2275F010EF2FE5
:10025200FFEE33FEED33FDCC33CCC833C810D707E5
:100262009BEC9AE899400AED9BFDEC9AFCE899F820
:0E0272000FD5F0DAE4CDFBE4CCFAE4C8F922B3
:00000001FF
