:1008520057656C636F6D6520746F20757365210A2F
:10086200004D61646520627920426565746C652083
:10087200456C656374726F6E696320546563686E5C
:100882006F6C6F6779210A0057656C636F6D652025
:10089200746F2075736521004552524F520A00450C
:1008A20052524F52200020670A00206D616F70691A
:0508B2000A00206700B0
:10094D00041500000000040D00000000041100005B
:0D095D000000010800C100040900000001B5
:100003001209B07BFF7A0879521209257BFF7A081F
:1000130079631209251209C87F801209E07BFF7AF0
:1000230008798A1208FB7FE87E03120970120A1E00
:10003300C2AF1207D5D2AF120A0A30001B7BFF7A78
:1000430008799A1209257FC01209E07BFF7A0879A3
:10005300A11208FBC29780D8D297E47BE87A03F910
:10006300F8AF14AE13AD12AC111208B7EF2430FF82
:10007300120A2AE47BE87A03F9F8AF14AE13AD123F
:10008300AC111208B7AC00AD01AE02AF03E47B6460
:10009300FAF9F81208B7EF2430FF120A2AE47B6456
:1000A300FAF9F8AF14AE13AD12AC111208B7AC00E5
:1000B300AD01AE02AF03E47B0AFAF9F81208B7EF19
:1000C3002430FF120A2AE47B0AFAF9F8AF14AE13BC
:1000D300AD12AC111208B7EB2430FF120A2A7BFFD2
:1000E3007A0879A81209257B007ACA799A783BAFF6
:1000F30010AE0FAD0EAC0D12049FEF2430FF120AA9
:100103002A7B007AE179F57805AF10AE0FAD0EAC1E
:100113000D12049FAC00AD01AE02AF037B807A9653
:100123007998780012049FEF2430FF120A2A7B800B
:100133007A9679987800AF10AE0FAD0EAC0D12041D
:100143009FAC00AD01AE02AF037B407A42790F78DA
:100153000012049FEF2430FF120A2A7B407A42796F
:100163000F7800AF10AE0FAD0EAC0D12049FAC00B4
:10017300AD01AE02AF037BA07A8679017800120449
:100183009FEF2430FF120A2A7BA07A867901780038
:10019300AF10AE0FAD0EAC0D12049FAC00AD01AEAF
:1001A30002AF03E47B107A27F9F812049FEF24309F
:1001B300FF120A2AE47B107A27F9F8AF10AE0FADCD
:1001C3000EAC0D12049FAC00AD01AE02AF03E47B95
:1001D300E87A03F9F812049FEF2430FF120A2AE4A5
:1001E3007BE87A03F9F8AF10AE0FAD0EAC0D120435
:1001F3009FAC00AD01AE02AF03E47B64FAF9F812E1
:10020300049FEF2430FF120A2AE47B64FAF9F8AF63
:1002130010AE0FAD0EAC0D12049FAC00AD01AE02DB
:10022300AF03E47B0AFAF9F812049FEF2430FF12BC
:100233000A2AE47B0AFAF9F8AF10AE0FAD0EAC0D43
:1002430012049FEB2430FF120A2A7BFF7A0879AC51
:100253001209257FC01209E0E47BE87A03F9F8AFBD
:1002630014AE13AD12AC111208B7EF2430FF12090C
:10027300F5E47BE87A03F9F8AF14AE13AD12AC11D1
:100283001208B7AC00AD01AE02AF03E47B64FAF928
:10029300F81208B7EF2430FF1209F5E47B64FAF98A
:1002A300F8AF14AE13AD12AC111208B7AC00AD0128
:1002B300AE02AF03E47B0AFAF9F81208B7EF243071
:1002C300FF1209F5E47B0AFAF9F8AF14AE13AD1285
:1002D300AC111208B7EB2430FF1209F57BFF7A0843
:0802E30079B41208FB0200339C
:100A0A0020B2107F057E0012097020B20630B2FDB6
:040A1A00120A1E227C
:1007D5001205688F148E138D128C11C3E5149510B4
:1007E500F514E513950FF513E512950EF512E511C0
:1007F500950DF511E4FFFEFDFCAB14AA13A912A893
:1008050011D312053F403CAF14AE13AD12AC11EC41
:1008150012038BE4FBFA79D778431202EE1203C96F
:10082500E48F148E13F512F5117F887E13FDFCAB52
:1008350014AA13A912A811D312053F4003D200220E
:0D084500C20022E4F514F513F512F511229E
:0C0A1E001205688F108E0F8D0E8C0D22BB
:10097000E4FDFCC3ED9FEC9E5015E4FBFA0BBB00BD
:0F098000010AEB647B4A70F50DBD00010C80E4A9
:01098F002245
:060A340020656E640A005B
:030A3A0000002297
:10056800D2B6120A3AC2B5E4F51CF51BF51AF5190C
:10057800D2AF20B6FDC2AFE4FBEBC39418748094ED
:10058800805030D2B5AF1CAE1BAD1AAC1978011231
:1005980005558F1C8E1B8D1A8C19C2B530B611EFFC
:1005A8002401F51CE43EF51BE43DF51AE43CF5197D
:1005B8000B80C6D2B5E51CF51CE51BF51BE51A64D6
:1005C80080F51AE519F519120A3AC2B57B007ACAFC
:1005D800799A783BAF1CAE1BAD1AAC1912049FEF89
:1005E8002430FF120A2A7B007AE179F57805AF1CDE
:1005F800AE1BAD1AAC1912049FAC00AD01AE02AF30
:10060800037B807A967998780012049FEF2430FF54
:10061800120A2A7B807A9679987800AF1CAE1BADB7
:100628001AAC1912049FAC00AD01AE02AF037B40B7
:100638007A42790F780012049FEF2430FF120A2AB9
:100648007B407A42790F7800AF1CAE1BAD1AAC190B
:1006580012049FAC00AD01AE02AF037BA07A86798D
:1006680001780012049FEF2430FF120A2A7BA07A37
:100678008679017800AF1CAE1BAD1AAC1912049F25
:10068800AC00AD01AE02AF03E47B107A27F9F81293
:10069800049FEF2430FF120A2AE47B107A27F9F826
:1006A800AF1CAE1BAD1AAC1912049FAC00AD01AE65
:1006B80002AF03E47BE87A03F9F812049FEF2430D1
:1006C800FF120A2AE47BE87A03F9F8AF1CAE1BADE7
:1006D8001AAC1912049FAC00AD01AE02AF03E47B63
:1006E80064FAF9F812049FEF2430FF120A2AE47B17
:1006F80064FAF9F8AF1CAE1BAD1AAC1912049FAC22
:1007080000AD01AE02AF03E47B0AFAF9F812049FC8
:10071800EF2430FF120A2AE47B0AFAF9F8AF1CAE7C
:100728001BAD1AAC1912049FEB2430FF120A2A7B66
:10073800FF7A0A7934120925AF1CAE1BAD1AAC1921
:01074800228E
:05096A00012100C101A4
:1009B000759850C29CE4F587758921758DFD758BFE
:0809C000FDD28ED2AFC2AC22C1
:100925008B1D8A1E891FAB1DAA1EA91F12044A60B2
:1009350016051FE51F7002051E14F912044AF599E4
:080945003099FDC29980DF2208
:0A0A2A00C2998F993099FDC29922FC
:10099000E4FDFCC3ED9FEC9E5015E4FBFA0BBB009D
:0F09A000010AEB647B4A70F50DBD00010C80E489
:0109AF002225
:1009E000A907C2A57F017E00120990D2A7898012B3
:0509F0000990C2A722DE
:1009F500A907D2A57F017E001209908980D2A7128E
:050A05000990C2A722C8
:1008FB008B198A1A891BAB19AA1AA91B12044AFF56
:10090B00D394007480948040101209F57401251B58
:0A091B00F51BE4351AF51A80DD2201
:1009C800C2A7C2A67F381209E07F0C1209E07F0691
:0809D8001209E07F010209E0B1
:1002EB0002043FEC5D046005E85904700302043519
:1002FB00120400580460F6EC4860F2EC7004FDFE4A
:10030B00FF22C860DB2481C85009C39860025006E5
:10031B0002043C9850CAF582E9294B4A7005AB821E
:10032B0002042B75F0007C1A7880C3EF9BEE9AEDDC
:10033B0099400DC3EF9BFFEE9AFEED99FDE842F05D
:10034B00DC23ACF0D0E0FFD0E0FED0E0FDAB8220B0
:10035B00E7101BEB60BAEC2CFCEF33FFEE33FEED3A
:10036B0033FD020417E803F830E705C0F075F00021
:10037B00EF2FFFEE33FEED33FD40B830E7C280AA1E
:10038B0075F020800E75F010800575F0087D007EED
:10039B00007F003392D530D503120531EC3340107A
:1003AB00EF33FFEE33FEED33FDEC33FCD5F0ED22F6
:0E03BB00E5F0247EA2D513CC92E7CDCEFF2232
:1003C900EDD2E7CD33EC3392D524814006E4FFFE2C
:1003D900FDFC22FCE4CFCECDCC24E0501174FF808B
:1003E900EDC3CC13CCCD13CDCE13CECF13CF047028
:0703F900F030D5DE020531F2
:10040000E9D2E7C933E833F892D5EDD2E7CD33EC42
:0704100033FC5002B2D522BB
:10041700EC30E7100FBF000C0EBE00080DBD000446
:100427000BEB6014A2D5EB13FCED92E7FD2274FFF2
:10043700FCFDFEFF22E480F8A2D574FF13FC7D804B
:03044700E480EF5F
:03000000020749AB
:0C074900787FE4F6D8FD7581210207904E
:10044A00BB010689828A83E0225002E722BBFE02B0
:09045A00E32289828A83E49322E3
:1004630075F008758200EF2FFFEE33FECD33CDCC50
:1004730033CCC58233C5829BED9AEC99E5829840D3
:100483000CF582EE9BFEED9AFDEC99FC0FD5F0D6B0
:10049300E4CEFBE4CDFAE4CCF9A88222B800C1B9DA
:1004A3000059BA002DEC8BF084CFCECDFCE5F0CB18
:1004B300F97818EF2FFFEE33FEED33FDEC33FCEB51
:1004C30033FB10D703994004EB99FB0FD8E5E4F90C
:1004D300FA227818EF2FFFEE33FEED33FDEC33FCF9
:1004E300C933C910D7059BE99A4007EC9BFCE99AED
:1004F300F90FD8E0E4C9FAE4CCFB2275F010EF2F32
:10050300FFEE33FEED33FDCC33CCC833C810D70731
:100513009BEC9AE899400AED9BFDEC9AFCE899F86C
:0E0523000FD5F0DAE4CDFBE4CCFAE4C8F922FF
:1008B700C2D5E830E70FB2D5E4C39BFBE49AFAE46C
:1008C70099F9E498F8EC30E717B2D51208ED12045D
:1008D7009FE4C39BFBE49AFAE499F9E498F8800350
:1008E70012049F30D50DE4C39FFFE49EFEE49DFDF7
:0408F700E49CFC225F
:0E053100C3E49FFFE49EFEE49DFDE49CFC22DB
:10053F00EB9FF5F0EA9E42F0E99D42F0EC6480C833
:06054F0064809845F022D3
:10055500E8600FEFC333FFEE33FEED33FDEC33FC04
:03056500D8F122A8
:10075500020003E493A3F8E493A34003F68001F2B7
:1007650008DFF48029E493A3F85407240CC8C333A5
:10077500C4540F4420C8834004F456800146F6DF74
:10078500E4800B010204081020408090094DE47EAE
:10079500019360BCA3FF543F30E509541FFEE49369
:1007A500A360010ECF54C025E060A840B8E493A330
:1007B500FAE493A3F8E493A3C8C582C8CAC583CA5B
:1007C500F0A3C8C582C8CAC583CADFE9DEE780BE13
:01096F000087
:00000001FF
