:100DF100BFA8B5C4C0E0D0CD3A00255800BFA8D0E7
:100E0100F2C1D0BAC5A3BA00BFA8B6C1BFE9A3BA9F
:100E1100000A0012345678EDCBA987123456783C7B
:0D0E2100C33CC300000001FFFFFFFFFFFF07
:100EBE00D3EF9400EE940040147D6E7C00ED1D7017
:0D0ECE00011CED4C70F7EF1F70E61E80E375
:010EDB0022F4
:10035F0080107B007A0079087F52120C958F22EF64
:10036F00600E120E6B120DB0120F37120F0C80E2CF
:10037F007BFF7A0D79F1120065E4F523C3E5239431
:10038F000274809480501D74082523F8E6752400AC
:10039F00F5257BFF7A0D79FB852429F52A12006557
:1003AF00052380D87B007A007908120B188F22EF73
:1003BF0070A07BFF7A0D79FE120065E4F523C3E58B
:1003CF0023940474809480501D74082523F8E675D7
:1003DF002400F5257BFF7A0D79FB852429F52A1258
:1003EF000065052380D87B007A007908120A908F68
:1003FF0022EF6003020361F52B752C00752D087B2E
:10040F00FF7A0E79287D3C7F60120A068F22EF60FB
:10041F00030203617BFF7A0E79147F3C1207D28FA0
:10042F0022EF60030203617B007A0079087F52128A
:10043F000C958F22EF600E120E6B120DB0120F374C
:10044F00120F0C80E27B007A007908120B188F22B2
:10045F00EF70D4FB7A007908120A908F22EF70C7E1
:10046F00F52B752C00752D087BFF7A0E79287D3CB6
:10047F007F60120A068F22EF70AD7BFF7A0E792410
:10048F007D3C7FC01206AA8F22EF709B7D3D7F3C83
:10049F001209748F22EF708FFB7A0079087F3D125B
:1004AF000C268F22EF70807BFF7A0E790912006580
:1004BF00E4F523C3E523941074809480501D7408D1
:1004CF002523F8E6752400F5257BFF7A0D79FB854A
:1004DF002429F52A120065052380D87BFF7A0E792F
:1004EF0012120065C2B07F647E00120EBED2B07FC2
:1004FF00647E00120EBEC2B07FC87E00120EBED246
:07050F00B0120E2E020436AB
:100E6B007580FF7590FF75B0FF75A0FF75892175B3
:100E7B009850758DFD758BFDE4F58CF58AD28CD26F
:0C0E8B00A9D28ED299D2AFD2ACD298225C
:100EDC00D3EF9400EE940040147D6E7C00ED1D70F9
:0D0EEC00011CED4C70F7EF1F70E61E80E357
:010EF90022D6
:080C95008F268B278A2889298C
:100C9D00120EFA7D077F0D120D597D037F14120F71
:100CAD001E85262C754701754800754900754A2C1F
:100CBD00754B00754C00754D2A7A00792C12052F55
:100CCD00EFFD3395E04D7021E52B6410452A701929
:100CDD00AB27AA28A929E52C1208D2AB27AA28A947
:0B0CED0029900001E52D0208E47FFEC5
:010CF80022D9
:060B18008B268A278928C4
:100B1E00E4F52A120EFAE4FD7F0D120D597D807F49
:100B2E000E120EFE752D93752E2075470275480018
:100B3E00754900754A2D754B00754C00754D2B7B14
:100B4E00007A00792D7F0C1205338F29EF3395E053
:100B5E004F7034FFEFC3940474809480501D742D35
:100B6E002FF8E6AB26AA27A9288F827583001208D4
:100B7E00E4742D2FF8E6622A0F80D9742D2FF8E633
:100B8E00652A60037529FE7D807F0E120F1EAF2928
:010B9E002234
:060A90008B268A2789284D
:100A9600752B93752C70E4F531FFEFC394047480C5
:100AA60094805022AB26AA27A9288F82758300122C
:100AB60008A5FE742D2FF8A6068F827583001208EE
:100AC600A562310F80D47542007543007544327BB0
:100AD600007A00792B7D07120BB0120EFA754709C2
:100AE600754800754900754A2B754B00754C0075A5
:100AF6004D297B007A00792B7F0C120533EFFD33ED
:100B060095E04D700AE52A641845297002FF227F98
:010B1600FEE0
:010B170022BB
:060A06008B288A29892AD1
:100A0C008F318D32E4FFEFC39406748094805018BC
:100A1C00AB28AA29A92A8F827583001208A5FE7417
:100A2C00332FF8A6060F80DEE4FFEFC39406748024
:100A3C0094805018AB2BAA2CA92D8F827583001291
:100A4C0008A5FE74392FF8A6060F80DE75470C75C5
:100A5C004800754900754A31754B00754C00754D51
:100A6C002F7B007A0079317F0E1205338F2EEF33F6
:100A7C0095E04F70097F08120CFFEF20E303752EF1
:030A8C00FEAF2E8C
:010A8F002244
:060C26008B268A278928B5
:100C2C00752B308F2C75420075430075442D7A005E
:100C3C00792B120BAC754704754800754900754A41
:100C4C002B754B00754C00754D297B007A00792B68
:100C5C007F0C120533EFFD3395E04D7029E52A64C6
:100C6C009045297021FEEEC3941074809480501826
:100C7C00742B2EF8E6AB26AA27A9288E8275830042
:080C8C001208E40E80E07FFE77
:010C9400223D
:0607D2008B268A2789280E
:1007D800752BA08F2C75420075430075442D7B0046
:1007E8007A00792B7D02120BB075470475480075A5
:1007F8004900754A2B754B00754C00754D297B00D7
:100808007A00792B7F0C120533EFFD3395E04D709C
:1008180010E52A640445297008E52B540F640A6022
:10082800027FFEEFFD3395E04D7071FEEEC394102C
:10083800748094805018AB26AA27A9288E827583C5
:10084800001208A5FD742B2EF8A6050E80DE754251
:100858000075430075443B7B007A00792B7D1012AC
:100868000BB0754712754800754900754A2B754BD2
:1008780000754C00754D297B007A00792B7F0C128E
:100888000533EFFD3395E04D7010E52A64044529E2
:0C0898007008E52B540F640A60027FFE1C
:0108A4002231
:0806AA008D268B278A2889297F
:1006B2008F2C85262D75420075430075442E7B00D4
:1006C2007A00792C7D02120BB075470475480075CB
:1006D2004900754A2C754B00754C00754D2A7B00FC
:1006E2007A00792C7F0C120533EFFD3395E04D70C3
:1006F20010E52B6404452A7008E52C540F640A6047
:10070200027FFEEFFD3395E04D706AFEEEC394105A
:10071200748094805018AB27AA28A9298E827583E9
:10072200001208A5FD742C2EF8A6050E80DE754277
:10073200007543007544307B007A00792C7D0412E9
:100742000BB0E4F52AF52B754706F5487549007597
:100752004A2CF54B754C00754D2AFB7A00792C7F9B
:100762000C120533EFFD3395E0FCED64FE7002ECF4
:10077200F46002E4FFEFFD3395E04D7052752CB04A
:1007820085262DF54275430075442EFB7A00792C9F
:100792007D02120BB0754704754800754900754A11
:1007A2002C754B00754C00754D2A7B007A00792C14
:1007B2007F0C120533EFFD3395E04D7010E52B648D
:0F07C20004452A7008E52C540F640A60027FFE7C
:0107D1002205
:020974008D26CE
:100976007529C28F2A120B9F120516EFFD3395E0DB
:100986004D7010E528640445277008E529540F6466
:100996000A60027FFEEFFD3395E04D7031F529F5D3
:1009A6002AF52BF52CF54275430075442DFB7A008C
:1009B60079297D04120BB0754706120519EFFD3330
:1009C60095E0FCED64FE7002ECF46002E4FFEFFDDE
:1009D6003395E04D60037FFE227529B085262A12E5
:1009E6000B9F120516EFFD3395E04D7010E5286458
:0F09F6000445277008E529540F640A60027FFE4C
:010A050022CE
:100E2E00752950E4F52AF54275430075442BFB7A7B
:100E3E000079297D02120BB075470475480075497B
:100E4E0000754A29754B00754C00754D277B007A4D
:0C0E5E000079297F0C1205338F267F00DD
:010E6A002265
:100B9F0075420075430075442B7A0079297B007DDF
:010BAF000243
:080BB0008B3E8A3F89408D4114
:100BB8007D047F05120EFE120D557D807F0A120FEF
:100BC8001EE4F545E545C395415019AB3EAA3FA93A
:100BD800408545827583001208A5FD7F09120D59CD
:100BE800054580E07D037F01120D597545FF7F059E
:100BF800120CFF1545E5456004EF30E2F17F221243
:100C08000CFFAB42AA43A944EF1208D27F21120C71
:0E0C1800FFAB42AA43A944900001EF0208E49A
:100DB000D291C291D2917F0A7E00120EDC7D0F7F0C
:100DC00001120D597D3D7F11120D597D1E7F2D128F
:100DD0000D59E4FD7F2C120D597D8D7F2A120D597E
:100DE0007D3E7F2B120D597D407F15120D597F00DE
:010DF00022E0
:060CF900AC07AB05E4FEB0
:100CFF00E4FEC296C297EF25E0547E4480FF7D0844
:100D0F00EDD39400748094804018EF548064807009
:100D1F0003D38001C39295D296EF25E0FFC2961DB3
:100D2F0080DE7D08EDD39400748094804011D296BC
:100D3F00EE25E0FEA294E4334206C2961D80E5D272
:050D4F0097D296AF06EB
:010D5400227C
:040D5500E4FD7F0139
:100D5900C296C297EF25E0547EFF7E08EED3940039
:100D6900748094804018EF548064807003D38001AC
:100D7900C39295D296EF25E0FFC2961E80DE7E08CB
:100D8900EED39400748094804018ED548064807090
:100D990003D38001C39295D296ED25E0FDC2961E3C
:060DA90080DED297D29615
:010DAF002221
:0D0F1E00120CF9AE07AF04EB4EFD020D59A9
:040EFA007D087F08E8
:0E0EFE00120CF9AE07AF04EBF45EFD020D59C5
:10051600754704754800754900754A29754B00757D
:0D0526004C00754D277A0079297B007F0C71
:080533008F438B448A45894681
:10053B00754EFEE4F54FF550E54324F4600C24FEB4
:10054B00700E754F127550108006754F77755030C1
:10055B00E54F4480FD7F02120D597D807F04120E02
:10056B00FE120D557D807F0A120F1EE4F552F553D6
:10057B00C3E5539547E5529400501FAB44AA45A9D8
:10058B00468553828552831208A5FD7F09120D59AA
:10059B000553E55370DA055280D6AD437F01120D3A
:1005AB0059E543640C70077D807F0D120F1E755249
:1005BB00027553587F04120CFF8F51E5531553707E
:1005CB00021552E55345526009E55120E0045550A0
:1005DB0060E27D807F0D120EFEE5534552700302E3
:1005EB00069D7F06120CFFEF541B600302069AF563
:1005FB004EE551554F30E003754EFFE543640C60FB
:10060B000302069D7F0A120CFF8F517F0C120CFF09
:10061B00EF5407FD6021E55124FFFFE434FFFEEFAB
:10062B007803C333CE33CED8F97C002DFFEC3EAB31
:10063B004BAA4CA94D800FE55175F008A4FFAB4BAD
:10064B00AA4CA94DE5F08FF0120906E55170037520
:10065B005101D3E55194127480948040037551126B
:10066B00E4F552F553C3E5539551E55294005022EE
:10067B007F09120CFFAB48AA49A94A8553828552C0
:10068B0083EF1208E40553E55370DA055280D675F3
:0E069B004EFE7D807F0C120F1E120D55AF4ECD
:0106A900222E
:100F0C007F14120CFFEF540370077D037F14120F34
:010F1C001EB6
:010F1D0022B1
:070F37007D037F14020EFE92
:03000000020F2BC1
:0C0F2B00787FE4F6D8FD75815302035F67
:1008A500BB010CE58229F582E5833AF583E0225008
:1008B50006E92582F8E622BBFE06E92582F8E22252
:0D08C500E58229F582E5833AF583E493226C
:1008D200BB010689828A83F0225002F722BBFE0105
:0208E200F322FF
:1008E400F8BB010DE58229F582E5833AF583E8F04A
:1008F400225006E92582C8F622BBFE05E92582C8F6
:02090400F222DD
:10090600BB010A89828A83F0E5F0A3F0225006F73C
:0F09160009A7F01922BBFE06F3E5F009F3192239
:10000300E5352429F8E605352278263007027829D4
:10001300E475F00112093E0209252000EB7F2ED280
:10002300008018EF540F2490D43440D4FF30040BD5
:10003300EF24BFB41A0050032461FFE536600215B4
:10004300360539E5397002053830070D7826E47531
:10005300F00112093EEF0208D2020E977403D20791
:100063008003E4C207F5358B268A278928E4F53611
:10007300F538F539E53660077F2012003E80F575C7
:1000830037FFC201C200C202C203C205C206C208D0
:1000930012000CFF700D3007057F0012004FAF39BF
:1000A300AE3822B4255FC2D5C20412000CFF24D09F
:1000B300B40A00501A75F00A783630D50508B6FF31
:1000C3000106C6A426F620D5047002D20380D924E3
:1000D300CFB41A00EF5004C2E5D20402024FD2019A
:1000E30080C6D20080C0D20280BCD2D580BAD205ED
:1000F30080B47F2012003E2002077401B536004011
:10010300F1120003FF12003E020077D208D20680EC
:1001130095120003FB120003FA120003F94A4B7015
:100123000679207A037BFF20022EE536602A7E00C3
:100133008E827583001208A560060EEE653770F097
:10014300C2D5EBC0E0EAC0E0E9C0E0EE120296D00F
:10015300E0F9D0E0FAD0E0FB120925FF60AAEBC07A
:10016300E0EAC0E0E9C0E012003ED0E02401F9D0AB
:10017300E03400FAD0E0FBE5370460DCD537D98002
:10018300877BFF7A027992D202809C791080027970
:1001930008C206C2088008D2D5790A8004790AC247
:1001A300D5E537047002F537E4FAFDFEFF120003CC
:1001B300FC7B08200113120003FD7B1030000A12A0
:1001C3000003FE120003FF7B20EC3382D592D5504F
:1001D30013C3E43000069FFFE49EFEE42001039D69
:1001E300FDE49CFCE4CBF8C201EC700CCFCECDCC8B
:1001F300E824F8F870F38017C3EF33FFEE33FEED16
:1002030033FDEC33FCEB33FB994002FB0FD8E9EBF6
:10021300300105F8D0E0C448B201C0E00AEC4D4E0D
:100223004F78207B0070C2EAB5370040BCC0E012B3
:100233000298D0F0D0E0200104C4C0E0C4B201C0F1
:10024300F0120027D0F0D5F0EB02007712094E012F
:100253001453018E5800E54C00E14201924F019A7C
:0F02630044019A4900FA4301A0550184460184E1
:100272004501844703405000E92D00ED2E01102B6B
:1002820000F123010E2003292A00A94800000108D9
:100292003F3F3F00790AA2D5200314300509B91067
:1002A200020404B9080104A2D52006025001042068
:1002B20002689202B536005034C0E07F2030031944
:1002C2007F30A20272067205500F1202EFC202C202
:1002D20006C205C2087F30800F300503E9C0E01274
:1002E200003E300503D0E0F9D0E0B536CC3005173A
:1002F2007F30B9100C12003E7F583004077F78809F
:1003020003B9080312003E3002057F2D02003E7F32
:10031200202008F87F2B2006F322920280CF286E3D
:10032200756C6C2900D2011200033001F8C2017809
:100332003630D50108F60200A92D50434958120063
:10034200032403B405004001E490033B9312002F01
:0D035200743A12002FD20375360402018E9A
:10092500BB010689828A83E0225002E722BBFE02D0
:09093500E32289828A83E4932203
:10093E00FAE6FB0808E6F925F0F618E6CA3AF622BA
:10094E00D083D082F8E4937012740193700DA3A338
:10095E0093F8740193F5828883E47374029368604C
:06096E00EFA3A3A380DF4C
:100E9700EFB40A07740D120EA2740A309811A899BC
:100EA700B8130CC2983098FDA899C298B811F630BB
:070EB70099FDC299F5992293
:00000001FF
